:020000040800F2
:10000000784F002061020008215000084F45000889
:100010001D500008F1100008FD66000800000000F7
:10002000000000000000000000000000A101000826
:100030005513000800000000FD010008C558000825
:100040007B0200087B0200087B0200087B0200089C
:100050007B0200087B0200085713000861130008A8
:100060006B130008751300087F13000815110008B2
:100070007B0200087B0200087B0200087B0200086C
:1000800025110008351100087B0200087B020008DA
:100090007B0200087B0200087B0200087B0200084C
:1000A000C9590008015A0008F1590008E15900082F
:1000B0007B020008115A0008215A00087B02000840
:1000C0007B0200087B0200087B0200087B0200081C
:1000D0007B0200082D660008516600087B020008BC
:1000E0007B0200087B0200087B020008415A0008DE
:1000F0007B020008595A00087B02000845110008DD
:100100007B0200087B020008315A00087B020008CD
:100110007B020008ED5E00087B0200087B020008FD
:100120007B02000855110008651100087B020008D9
:100130007B0200087B0200087B0200087B020008AB
:100140007B0200087B0200087B0200087B0200089B
:100150007B0200087511000885110008756600080B
:100160007B0200087B0200087B0200087B0200087B
:100170007B0200087B0200087B02000800000000F0
:100180007B0200087B020008DFF810D000F0D0FAF4
:100190000048004725720008AFF30080784F002028
:1001A0002C4B19680868B0E8F04F80F30988BFF35A
:1001B0006F8F4FF0000080F311887047000000003F
:1001C00008480068006880F308884FF0000080F35A
:1001D000148862B661B6BFF34F8FBFF36F8F00DF35
:1001E00000BF00BF08ED00E0DFF80C00016841F43B
:1001F00070010160704700BF88ED00E0EFF30980F7
:10020000BFF36F8F134B1A681EF0100F08BF20ED5D
:10021000108A20E9F04F106009B44FF0500080F3CD
:100220001188BFF34F8FBFF36F8F07F083FF4FF03D
:10023000000080F3118809BC19680868B0E8F04F25
:100240001EF0100F08BFB0EC108A80F30988BFF3CE
:100250006F8F7047A8010020EFF305807047000002
:100260000648804706480047FEE7FEE7FEE7FEE750
:10027000FEE7FEE7FEE7FEE7FEE7FEE7B55900080A
:10028000890100082DE9F05F0546002092469B4653
:1002900088460646814640241BE02846414647469C
:1002A000224600F07CF853465A46C01A914110D3BA
:1002B00011461846224600F063F82D1A67EB010834
:1002C0004F4622460120002100F05AF817EB0009A2
:1002D0004E41201EA4F10104DFDC484631462A4687
:1002E0004346BDE8F09F40EA01039B0703D009E0C5
:1002F00008C9121F08C0042AFAD203E011F8013B12
:1003000000F8013B521EF9D27047D2B201E000F86A
:10031000012B491EFBD270470022F6E710B51346A9
:100320000A4604461946FFF7F0FF204610BD00F0CC
:10033000004230F000400AD0C10D01F56071C0F3F9
:10034000160042EA0151C2084007114370470020DD
:100350000146704730B50B4601460020202201249B
:1003600009E021FA02F59D4205D303FA02F5491B83
:1003700004FA02F52844151EA2F10102F1DC30BD99
:10038000202A04DB203A00FA02F100207047914055
:10039000C2F1200320FA03F3194390407047202A4A
:1003A00004DB203A21FA02F00021704721FA02F31F
:1003B000D040C2F1200291400843194670472DE910
:1003C000FE4F804681EA0300C00F0C46009021F0EA
:1003D000004123F00045B8EB0200A94105D2404698
:1003E000214690461C460B46024623F0004010432F
:1003F00047D0270DC7F30A00C3F30A510290401AF1
:10040000019040286BDAC3F3130040F4801B00987E
:10041000924620B10023D2EB030A63EB0B0B019849
:100420005946C0F140025046FFF7AAFF06460D4666
:1004300050465946019A00F08DF910EB08006141D1
:10044000002487EA115284EAE7731A4340D0009AE5
:1004500062B3019A012A4FEA075215DC001B61EBD7
:1004600002014FF0004202EA0752CDE90042001CAF
:1004700041F5801132462B4600F08DF903B0BDE8FE
:10048000F08F40462146F9E7001B61EB0201001C9A
:1004900041F5801300185B412018A2F5001747EBC7
:1004A000030140EAD570B6196D4111E06D084FEABD
:1004B000360645EAC0754FEA0752001B61EB0201A0
:1004C000001C41F5801149084FEA300000195141E4
:1004D00032462B4603B0BDE8F04F00F04DB900980E
:1004E000012240000023D0EB020263EBE07300988E
:1004F00021464FEAE074B8EB000061EB0401E9E744
:1005000083F000435BE781F0004158E72DE9FE4F9F
:1005100081EA030404F0004421F0004100944FF00C
:10052000000B23F0004350EA01045ED052EA0304BA
:100530005BD0C3F30A54C1F30A552C44A4F2F3343C
:100540000194A0FB0254C1F3130141F48011C3F3E1
:10055000130343F4801301FB024400FB034E840A9F
:10056000970A44EA815447EA8357A4FB0768029537
:100570008D0A05FB07854FEA932C04FB0C542705D5
:10058000029D4FEA065847EA1637B5EB08056EEBB1
:10059000070C870E920E47EA811742EA8312A7FBE7
:1005A0000201B6EB0B0164EB00042B0D43EA0C33A4
:1005B0005E1844EB1C50DA465146E7FB0201C5F3D6
:1005C00013044FEA0B3343EA14534FEA0432019CFD
:1005D00043EA0603A4F10C040294009CCDE900B4A4
:1005E00000F0D9F803B0BDE8F08F00200146F9E72C
:1005F0002DE9F04D81EA030404F0004B21F00045A1
:1006000014464FF0000A23F0004150EA050220D0C2
:1006100054EA01021DD0C5F30A570246C5F313037D
:10062000C1F31300C1F30A5640F4801543F480135C
:10063000A7EB0608101BD64608F2FD3873EB050041
:1006400002D308F1010801E092185B41B8F1000FF4
:1006500003DA00200146BDE8F08D00204FF4801140
:10066000064684460EE0171B73EB050705D3121BE5
:1006700063EB050306434CEA010C49084FEA3000DE
:1006800092185B4150EA0107EDD152EA030012D003
:1006900082EA040083EA0501084305D0101BAB4140
:1006A00006D20122002306E000224FF0004302E0C0
:1006B0006FF0010253101AEB06004CEB085110EBDF
:1006C0000A0041EB0B01BDE8F04D00F055B8C1F355
:1006D0000A52C1F3130140F2FF3341F480119A42F0
:1006E00002DA00200146704740F233439A42A2F2F8
:1006F000334202DC5242FFF752BEFFF741BE000018
:1007000030B5041E71F1000404DB4FF00044404298
:1007100064EB0101141E73F1000405DB1C464FF06D
:100720000043524263EB0403994208BF904230BD3C
:10073000064C074D06E0E06840F0010394E807002E
:1007400098471034AC42F6D3FFF722FD0488000826
:1007500024880008202A06DBCB17203A41FA02F051
:1007600043EAE07306E041FA02F3D040C2F120020E
:10077000914008431946704710B5141E73F10004E8
:1007800008DA401C41F1000192185B411A4301D183
:1007900020F0010010BD2DE9F04D92469B4611B1AD
:1007A000B1FA81F202E0B0FA80F220329046FFF70F
:1007B000E7FD04460F4640EA0A0041EA0B015346B2
:1007C0005A46084313D0114653EA010019D0C8F124
:1007D00040025046FFF7E3FD05460E465046594697
:1007E0004246FFF7CDFD084305D0012004E0204636
:1007F0003946BDE8F08D0020054346EAE0762C43FB
:1008000037430A986305E40AA0EB08000022FD0ABA
:1008100044EA47540A3002D500200146E9E70105C1
:1008200010196941DDE9084500196941BDE8F04D3D
:10083000A2E770B58C1810F8015B15F0070301D121
:1008400010F8013B2A1106D110F8012B03E010F833
:10085000016B01F8016B5B1EF9D12B0705D4002356
:10086000521E0DD401F8013BFAE710F8013BCB1AF8
:10087000921C03E013F8015B01F8015B521EF9D5ED
:10088000A142D8D3002070BD70B504460D46012D9D
:100890000AD1A1880022206801F022F9A189012251
:1008A000A06801F01DF909E0A1880122206801F08B
:1008B00017F9A1890022A06801F012F970BD10B5E6
:1008C0000446A1880022206801F00AF9A1890022CB
:1008D000A06801F005F910BD10B501210948FFF726
:1008E000D3FF48F6B80007F0A5FA00210548FFF746
:1008F000CBFF49F2704007F09DFA0248FFF7DFFF97
:1009000010BD0000CC0000201CB540F2DC5040F6C9
:10091000C4114FF4FA730822CDE9001008490948C0
:1009200004F071FC40F2DC5040F6C4114FF4FA734D
:100930000C22CDE900100249034804F064FC1CBD00
:10094000F0050020500B0020600B002010B51B4864
:1009500000681B49086000201849086018480068B2
:1009600038B3184803F0B2F81548006800F04EFBA1
:100970001348006804F0CCFB1148006807F05AF8EF
:1009800000F02CF8104807F00DF8104807F00AF8AE
:100990000C4804F037FF0E480068012809D10020F8
:1009A0000C4908700023022219460B48006807F022
:1009B0004BFD00200249086010BD000070010020BE
:1009C000EC00002010070020880C0020B80C00204C
:1009D000940100206C0100200C00002010B54FF4A1
:1009E000877300228421094804F022FC4FF4FA7036
:1009F00007F020FAB42300221146054804F018FC41
:100A00004FF4167007F016FA10BD0000500B0020CE
:100A1000600B00207047000010B52DED028BA1483F
:100A200004F040FCB0EE408A9F4801689F4806F001
:100A30005DFC9C4880ED070A9B480068401C032130
:100A400090FBF1F201FB120097490860642007F067
:100A5000F1F9974804F026FCB0EE408A9548016809
:100A6000954806F043FC924880ED070A91480068DB
:100A7000401C032190FBF1F201FB12008D4908603C
:100A8000642007F0D7F98D4804F00CFCB0EE408AE2
:100A90008B4801688B4806F029FC884880ED070ADE
:100AA00087480068401C032190FBF1F201FB120013
:100AB00083490860642007F0BDF9834804F0F2FB25
:100AC000B0EE408A81480168814806F00FFC7E48FC
:100AD00080ED070A7D480068401C032190FBF1F27D
:100AE00001FB120079490860642007F0A3F96D4802
:100AF000D0ED070AB0EE600A64210020B3EE0C1AB4
:100B0000F2EE090A06F0CBFB664908626848D0EDB0
:100B1000070AB0EE600A64210020B3EE001AF2EE7C
:100B2000080A06F0BCFB624908626448D0ED070A77
:100B3000B0EE600A64210020B3EE0B1ADFED650A07
:100B400006F0ADFB5D4908625F48D0ED070AB0EEE4
:100B5000600A64210020B3EE0E1AF2EE040A06F0D9
:100B60009EFB594908625CA005F048FE4D4890ED97
:100B7000070A10EE101A0846FFF7D9FB41EC180BD4
:100B800053EC182B5FA005F039FE494890ED070A99
:100B900010EE101A0846FFF7CAFB41EC180B53EC95
:100BA000182B5FA005F02AFE444890ED070A10EECE
:100BB000101A0846FFF7BBFB41EC180B53EC182B3F
:100BC0005EA005F01BFE404890ED070A10EE101ADB
:100BD0000846FFF7ACFB41EC180B53EC182B5EA05A
:100BE00005F00CFE63A005F009FE2E48016A6CA01A
:100BF00005F004FE2E48016A6DA005F0FFFD2F48A8
:100C0000016A6FA005F0FAFD2F48016A70A005F097
:100C1000F5FD2A48006AC0F1640271A1794805F027
:100C20003BFD322007F006F92148006AC0F164025A
:100C300075A1744805F030FD322007F0FBF8194823
:100C4000006AC0F1640277A16E4805F025FD3220EC
:100C500007F0F0F81C48006AC0F1640279A1694805
:100C600005F01AFD0F48006A192802DA042004F082
:100C700087FA0F48006A192802DA022004F080FA85
:100C80000E48006A192802DA032004F079FA0E48A7
:100C9000006A192802DA012004F072FABDEC028B16
:100CA00010BD000028000020FC000020F000002003
:100CB0004C0000200C0100200001002070000020EA
:100CC0001C01002010010020940000202C010020B5
:100CD0002001002052B842412D2D2D2D2D2D2D2DDE
:100CE0002D2D2D2D2D2D44495354414E43452D2D51
:100CF0002D2D2D2D2D2D2D2D2D2D2D2D2D2D2D0D44
:100D00000A0000002D536F6E6172312064697374A4
:100D1000616E63653A20252E326620636D0D0A00F0
:100D20002D536F6E6172322064697374616E6365F6
:100D30003A20252E326620636D0D0A002D536F6E0A
:100D40006172332064697374616E63653A20252E85
:100D5000326620636D0D0A002D536F6E6172342070
:100D600064697374616E63653A20252E3266206370
:100D70006D0D0A002D2D2D2D2D2D2D2D2D2D2D2DD3
:100D80002D2D50455243454E542D2D2D2D2D2D2DBD
:100D90002D2D2D2D2D2D2D2D2D2D0D0A000000007A
:100DA000536F6E617231203A202564200D0A0000D5
:100DB000536F6E617232203A202564200D0A0000C4
:100DC000536F6E617233203A202564200D0A0000B3
:100DD000536F6E617234203A202564200D0A0000A2
:100DE000727562626973685F7265636F766572615E
:100DF000626C655F73746F726167653D2564FFFFA8
:100E0000FF00000010070020727562626973685F5E
:100E10006F746865725F73746F726167653D256496
:100E2000FFFFFF00727562626973685F6B697463CC
:100E300068656E5F73746F726167653D2564FFFF5F
:100E4000FF000000727562626973685F6861726DAD
:100E500066756C5F73746F726167653D2564FFFF33
:100E6000FF00000010B50A48006801280BD10948AE
:100E7000007840B908480068012804D001210748DB
:100E800004F007FD02E0054804F010FD10BD00006D
:100E9000940100206C01002054010020700B002000
:100EA0000EB532204FF47A714FF48062044BCDE9D5
:100EB0000021029000220349034804F0C1FC0EBD4A
:100EC0000010024088040020700B002000B50521AE
:100ED000034806F099F90121024806F095F900BD92
:100EE000880C0020B80C002010B53048016830484C
:100EF00006F02AF9002822D02C4800682D49086005
:100F0000084601682CA005F079FC2A48006850B119
:100F100006202749C8620023022219462E4800688D
:100F200007F092FA02E005202149C86221482BA16E
:100F30000268304805F0B0FB00202F4908601B48CC
:100F400001682E4806F000F9B8B11848006850B1A1
:100F500001202B4908700023022219462948006805
:100F600007F072FA09E000202549087000230222E8
:100F700019462448006807F067FA2148007898B9B4
:100F80002148006801280FD11B480068401C1A49FD
:100F900008600846006843F69821884204D900207A
:100FA000194908601449086010BD00007401002050
:100FB000880C0020700100202D2D2D637572726544
:100FC0006E745F727562626973685F747970653D93
:100FD00025640D0A0000000008000020727562629E
:100FE0006973685F7374617465303D2564FFFFFF4A
:100FF00000000000100700208C010020B80C002029
:101000006C0100200C0000209401002010B5044663
:10101000012C4FD0022C21D0032C02D0042C5FD104
:1010200032E00023022219462E48006807F00CFA2D
:10103000B423002211462C4804F0FAF84FF416703D
:1010400006F0F8FE4FF487730022D221274804F0FF
:10105000EFF84FF4167006F0EDFE41E0B4230022E5
:101060005A21214804F0E4F84FF4167006F0E2FE2D
:101070004FF4877300223C211C4804F0D9F84FF448
:10108000167006F0D7FE2BE0B42300221146164856
:1010900004F0CEF84FF4167006F0CCFE4FF48773D0
:1010A00000223C21114804F0C3F84FF4167006F0FA
:1010B000C1FE15E0B42300225A210B4804F0B8F811
:1010C0004FF4167006F0B6FE4FF487730022D2215B
:1010D000064804F0ADF84FF4167006F0ABFE00BF02
:1010E00000BF10BD10000020600B0020500B00203E
:1010F00000BFFEE700210648FFF7C6FB06E04FF001
:10110000FF31012006F05CFCFFF7E6FBF7E700008B
:10111000CC00002010B5024800F0A4F910BD00007A
:10112000E807002010B5024800F09CF910BD00004F
:101130006809002010B5024800F094F910BD0000C5
:10114000C809002010B5024800F08CF910BD00005D
:101150004808002010B5024800F084F910BD0000D6
:10116000280A002010B5024800F07CF910BD0000EC
:10117000A808002010B5024800F074F910BD000066
:10118000880A002010B5024800F06CF910BD00007C
:10119000080900200146087810381823B0FBF3F244
:1011A0000848805CC865032A05D908686FF3090000
:1011B000001D886503E008686FF309008865886D85
:1011C00070470000D8870008014600208A6A8B69B2
:1011D000CBB932B1012A0DD0022A03D0032A10D193
:1011E0000EE000BFCB6A03F08073B3F1807F00D1C3
:1011F000012007E0CB6AB3F1C07F00D1012001E0FC
:1012000000E000BF34E08B69B3F5005F1AD132B162
:10121000012A07D0022A03D0032A11D10AE000BF15
:1012200001200EE0CB6A03F08073B3F1807F00D120
:10123000012006E0CB6AB3F1C07F00D1012000E0BD
:1012400000BF15E032B1012A05D0022A04D0032ADA
:101250000CD103E000BF00BF012008E0CB6A03F01F
:101260008073B3F1807F00D1012000E000BF00BF98
:10127000704730B50468246824F4802405682C6025
:10128000046863608468402C04D10468A260046828
:10129000E16003E00468A1600468E26030BD000022
:1012A00070B504460D462148844214D12048007888
:1012B000B12810D11E484078B1280CD11C48C07804
:1012C000552808D11A4880781A490860184881784A
:1012D00019A005F093FA1C48844226D114480078DE
:1012E000552822D112488078FF281ED11048C07896
:1012F000FF281AD10E480079FF2816D10C484078F3
:10130000012807D11149086000211148006806F042
:1013100039FE0AE00648407838B900200B490860D9
:1013200000210B48006806F02DFE70BDA0070020CC
:10133000E80C002074010020727562626973683DD8
:1013400025640D0A00000000100700209401002011
:101350000C000020704710B5012000F0B1FA10BD5C
:1013600010B5022000F0ACFA10BD10B5042000F05A
:10137000A7FA10BD10B5082000F0A2FA10BD10B5F4
:10138000102000F09DFA10BD72B600BFFEE770B5E8
:101390000446A56D00F0AAFB064694F83500022825
:1013A00008D08020606500BF002084F8340000BFB2
:1013B000012070BD2068006820F0160021680860D8
:1013C0002068406920F0800021684861206C08B9DD
:1013D000A06C28B12068006820F00800216808602F
:1013E0002068006820F001002168086010E000F02B
:1013F0007DFB801B05280BD920206065032084F825
:10140000350000BF002084F8340000BF0320D0E77F
:101410002068006800F001000028E8D194F85C1012
:101420003F208840A860012084F8350000BF0020DC
:1014300084F8340000BF00BFBBE7014691F83500D7
:10144000022803D08020486501207047052081F8DC
:1014500035000868006820F001000A68106000206C
:10146000F3E70000F8B50446002000908C480068BF
:101470004FF41651B0FBF1F7A56D2E6894F85C108F
:1014800008208840304098B12068006800F00400CF
:1014900070B12068006820F004002168086094F8AA
:1014A0005C1008208840A860606D40F00100606515
:1014B00094F85C1001208840304068B12068406991
:1014C00000F0800040B194F85C1001208840A860D2
:1014D000606D40F00200606594F85C100420884064
:1014E000304068B12068006800F0020040B194F814
:1014F0005C1004208840A860606D40F004006065C6
:1015000094F85C1010208840304078B32068006860
:1015100000F0080050B394F85C1010208840A860D8
:101520002068006800F4802080B12068006800F422
:10153000002028B9206CC8B12046216C884715E0EE
:10154000A06C98B12046A16C88470FE02068006825
:1015500000F4807028B92068006820F00800216835
:101560000860206C10B12046216C884794F85C100C
:10157000202088403040002865D02068006800F0B6
:10158000100000285FD094F85C1020208840A860EC
:1015900094F83500052828D12068006820F016004E
:1015A000216808602068406920F080002168486157
:1015B000206C08B9A06C28B12068006820F00800F1
:1015C0002168086094F85C103F208840A8600120E2
:1015D00084F8350000BF002084F8340000BF206D7F
:1015E00010B12046216D8847F8BD2068006800F4DE
:1015F000802080B12068006800F4002028B9606C69
:1016000010B12046616C88471DE0E06BD8B12046E0
:10161000E16B884717E02068006800F4807068B9C3
:101620002068006820F0100021680860012084F81C
:10163000350000BF002084F8340000BFE06B10B11B
:101640002046E16B8847606D38B3606D00F00100A3
:10165000F0B1052084F835002068006820F0010012
:101660002168086000BF0098401C0090B84200D973
:1016700005E02068006800F001000028F3D100BFF9
:10168000012084F8350000BF002084F8340000BF3A
:10169000E06C10B12046E16C884700BFA4E7000071
:1016A000240000202DE9F0410446002500F01EFA38
:1016B000074614B90120BDE8F081606A00B100BF9F
:1016C000022084F8350000BF002084F8340000BFF9
:1016D0002068006820F00100216808600AE000F03E
:1016E00005FAC01B052805D920206065032084F871
:1016F0003500E0E72068006800F001000028EED126
:101700002068056821480540D4E901010843E168E3
:1017100008432169084361690843A1690843E169F5
:101720000843216A08430543606A042803D1D4E9C9
:101730000B0108430543206805602068456925F0D2
:101740000705606A0543606A04280DD1A06A054355
:10175000E06A48B12046FFF737FD28B140206065B8
:10176000012084F83500A6E7206845612046FFF790
:1017700011FD064694F85C103F208840B0600020C0
:101780006065012084F83500002094E73F8010F068
:101790002DE9F04704460D4616461F464FF0000857
:1017A000D4F8589000BF94F83400012802D10220E8
:1017B000BDE8F087012084F8340000BF94F83500BC
:1017C000012825D1022084F83500002060653B46C1
:1017D000324629462046FFF74CFD94F85C103F2026
:1017E0008840C9F808002068006840F016002168A9
:1017F0000860206C28B12068006840F0080021686B
:1018000008602068006840F001002168086006E078
:1018100000BF002084F8340000BF4FF002084046AB
:10182000C6E7000070B50446022C0DD102211F4806
:1018300000F04EF90546012D02D11D49086002E075
:1018400000201B49086000BF042C0DD1042117485B
:1018500000F03EF90546012D02D11549086002E06D
:1018600000201449086000BF082C0DD108210F4842
:1018700000F02EF90546012D02D10F49086002E063
:1018800000200D49086000BF102C0DD11021074821
:1018900000F01EF90546012D02D10849086002E05A
:1018A00000200649086000BF70BD0000001402401F
:1018B000BC000020C0000020C4000020C8000020A0
:1018C00010B5044604480068204020B10248046076
:1018D0002046FFF7A7FF10BD143C0140F8B50246B3
:1018E0000B460025002400200021D6E0012606FA40
:1018F00001F51E6806EA0504AC4274D11E7906F0B3
:101900000306012E04D01E7906F00306022E13D121
:1019100090684F000326BE40B0434F00DE68BE40D3
:1019200030439060506801268E40B0431E79C6F364
:1019300000168E40304350601E7906F00306032ED9
:1019400009D0D0684F000326BE40B0434F009E68C8
:10195000BE403043D0601E7906F00306022E13D13C
:10196000CF0802F1200656F827004E07F70E0F2683
:10197000BE40B0434F07FF0E1E69BE403043CF0844
:1019800002F1200646F8270010684F000326BE40EB
:10199000B0431E7906F003064F00BE40304310608E
:1019A0005E6806F44036002E76D000BF0026009612
:1019B0003C4E366846F480463A4F3E603E463668B6
:1019C00006F48046009600BF00BF374E8F0856F8D9
:1019D00027008E07370F0F26BE40B043334EB2426A
:1019E00002D1002624E057E0314EB24201D1012657
:1019F0001EE0304EB24201D1022619E02E4EB24214
:101A000001D1032614E02D4EB24201D104260FE08D
:101A10002B4EB24201D105260AE02A4EB24201D134
:101A2000062605E0284EB24201D1072600E008262E
:101A30008F073F0FBE4030431B4E8F0846F82700EC
:101A4000224E3068A0435E6806F4801606B120433B
:101A50001E4E3060361D3068A0435E6806F40016E6
:101A600006B12043194E361D3060184E361F3068BF
:101A7000A0435E6806F4003606B12043134E361FBD
:101A80003060361F3068A0435E6806F4803606B1C9
:101A900020430E4E083E3060491C1029FFF426AF4B
:101AA000F8BD000044380240083801400000024000
:101AB0000004024000080240000C024000100240F6
:101AC0000014024000180240001C0240083C014083
:101AD000024613690B400BB1012000E00020704763
:101AE0000AB1816101E00B0483617047014800681D
:101AF0007047000018000020034800680349097877
:101B000008440149086070471800002020000020A8
:101B100010B50D48006840F400700B490860084695
:101B2000006840F4806008600846006840F48070F7
:101B30000860032000F0E0F80F2000F007F800F044
:101B40005FF8002010BD0000003C02402DE9F0418C
:101B500088B004460027B84600BF00200190234803
:101B6000006840F48070214908600846006800F46D
:101B70008070019000BF00BF02A903A800F062FAC4
:101B8000069F1FB900F086FA054602E000F082FACF
:101B900045001748B5FBF0F0A0F1010815481649BB
:101BA000086040F2E7311448C160C0F804800021A9
:101BB00001618160816100F05DFE064696B90E48C4
:101BC00000F06EFF06466EB92D2000F043F8102C91
:101BD00007D2002221462D2000F050F8074804606B
:101BE00000E00126304608B0BDE8F08140380240F0
:101BF00040420F0000200040E80A00201C000020A6
:101C000008B500BF002000901148006840F48040F3
:101C10000F4908600846006800F48040009000BF4B
:101C200000BF00BF00200090081F006840F08050F7
:101C3000091F08600846006800F08050009000BF4F
:101C400000BF00220F21901E00F018F808BD000010
:101C5000443802400146084600280DDB00BF00BFA3
:101C600000F01F0301229A4043099B0003F1E02387
:101C7000C3F8002100BF00BF00BF70472DE9F05F2F
:101C800080460D461646002704F0E2FD0746394619
:101C90002A46334601F00700C0F1070ABAF1040FE3
:101CA00002D94FF0040A01E0C0F1070AD14600F161
:101CB000040ABAF1070F02D24FF0000A01E0A0F1C6
:101CC000030AD4464FF0010A0AFA09FAAAF1010AF6
:101CD0000AEA020A0AFA0CFA4FF0010B0BFA0CFBA3
:101CE000ABF1010B0BEA030B4AEA0B042146404619
:101CF00004F0B6FDBDE8F09F00BF00F00702064B00
:101D000019684FF6FF031940044B0B4343EA0221C5
:101D1000014B196000BF70470CED00E00000FA05B0
:101D2000F8B5044600250026207800F0010020B90F
:101D3000207800F0040004282FD100205B49886639
:101D4000FFF7D4FE054606E0FFF7D0FE401B022851
:101D500001D90320F8BD56480068C0F3C0600028D0
:101D6000F2D160688101207A41EA007050498431E3
:101D7000086001204D498866FFF7B8FE054606E079
:101D8000FFF7B4FE401B022801D90320E2E74848D0
:101D90000068C0F3C0600028F2D0207800F0020094
:101DA00002287DD100BF00200090414840300068EB
:101DB00040F080503E49403108600846006800F01D
:101DC0008050009000BF00BF3A48006840F4807027
:101DD00038490860FFF78AFE054606E0FFF786FEF1
:101DE000401B022801D90320B4E73248006800F400
:101DF00080700028F2D02E487030006800F44076E1
:101E00004EB3A08900F44070B04224D0284870300E
:101E1000006820F44076012027490860002008600F
:101E2000234870300660006800F0010098B1FFF7A9
:101E30005DFE054608E0FFF759FE401B41F2883180
:101E4000884201D9032085E7194870300068C0F343
:101E500040000028EFD000BFA08900F44070B0F52A
:101E6000407F0CD112480830006820F4F810134A63
:101E7000E168114008430E490831086007E00C484A
:101E80000830006820F4F810094908310860084853
:101E900070300068A189C1F30B010843044900E0D8
:101EA00002E07031086000BF002053E700004742A5
:101EB0000038024000700040400E4742FFFCFF0F18
:101EC00070B504460D460CB9012070BD5848006835
:101ED00000F00700A84209D255490D700846006875
:101EE00000F00700A84201D00120EEE7207800F0C2
:101EF000020002281DD1207800F00400042805D13A
:101F00004C48006840F4E0504A490860207800F0EE
:101F10000800082805D14748006840F4604045495A
:101F200008604448006820F0F000A1680843414977
:101F30000860207800F00100A8B36068012807D18C
:101F40003C4808380068C0F34040B8B90120BCE7FD
:101F50006068022802D06068032807D13548083835
:101F60000068C0F3406048B90120AEE73148083846
:101F70000068C0F3400008B90120A6E72D480068BA
:101F800020F00300616808432A490860FFF7AEFDAE
:101F9000064609E0FFF7AAFD801B41F2883188421E
:101FA00002D9032091E707E02248006800F00C0006
:101FB0006168B0EB810FEDD11D48006800F00700AB
:101FC000A84209D91A490D700846006800F00700B8
:101FD000A84201D0012078E7207800F0040004280E
:101FE00007D11448006820F4E050E1680843114923
:101FF0000860207800F00800082808D10D48006823
:1020000020F46040216940EAC1000A49086000F0FC
:1020100061F808490968C1F30311074A515CC840D7
:102020000649086006480068FFF790FD00204CE76D
:10203000003C024008380240E087000824000020ED
:102040001C0000200F2202600D4A126802F00302F9
:1020500042600B4A126802F0F0028260084A12687D
:1020600002F4E052C260064A126802F46042D208EA
:102070000261044A126802F007020A607047000019
:1020800008380240003C02400148006870470000E8
:102090002400002000B5FFF7F7FF04490968C1F3E9
:1020A0008221034A515CC84000BD0000083802404C
:1020B000F087000800B5FFF7E7FF04490968C1F39E
:1020C0004231034A515CC84000BD0000083802405C
:1020D000F08700082DE9F047002400250026A146DE
:1020E0002548006800F00C0020B1042805D008281D
:1020F0003AD105E0DFF8849039E0DFF8849036E0EB
:102100001D48001F006800F03F041B48001F0068C6
:1021100000F4800078B11A481749091F0968C1F313
:102120008811A0FB01700146224600233846FEF7C5
:10213000A9F805460EE011480F49091F0968C1F3C7
:102140008811A0FB01700146224600233846FEF7A5
:1021500099F805460848001F0068C0F30140401C7C
:102160004600B5FBF6F902E0DFF8109000BF00BFB3
:102170004846BDE8F0870000083802400024F4001B
:1021800040787D01F8B504460CB90120F8BD2078EF
:1021900000F00100002874D0F948006800F00C003D
:1021A00004280DD0F648006800F00C00082813D170
:1021B000F348001F006800F48000B0F5800F0BD1D9
:1021C000EF4808380068C0F34040002859D06068E4
:1021D000002856D10120D9E700BF6068B0F5803FE4
:1021E00008D1E7480838006840F48030E4490839ED
:1021F00008601EE06068B0F5A02F0DD1E0480838F7
:10220000006840F48020DE4908390860084600680C
:1022100040F4803008600CE0D9480838006820F4A9
:102220008030D749083908600846006820F48020CB
:10223000086000BF606890B1FFF758FC054606E0F3
:10224000FFF754FC401B642801D903209EE7CC48CB
:1022500008380068C0F340400028F1D011E0FFF7D3
:1022600045FC054606E0FFF741FC401B642801D908
:1022700003208BE7C24808380068C0F340400028BC
:10228000F1D1207800F0020002285FD1BC4800683C
:1022900000F00C0058B1BA48006800F00C000828A3
:1022A0001CD1B748001F006800F48000B0B9B448E2
:1022B00008380068C0F3400020B1E068012801D070
:1022C000012063E7AE480838006820F0F800216973
:1022D00040EAC100AA490839086037E0E06800B365
:1022E0000120A8490860FFF701FC054606E0FFF75A
:1022F000FDFB401B022801D9032047E7A04808380E
:102300000068C0F340000028F1D09D4808380068FC
:1023100020F0F800216940EAC100994908390860B5
:1023200014E0002097490860FFF7E0FB054606E04F
:10233000FFF7DCFB401B022801D9032026E7904869
:1023400008380068C0F340000028F1D1207800F080
:10235000080008282CD16069A8B101208A490860CA
:10236000FFF7C4FB054606E0FFF7C0FB401B022851
:1023700001D903200AE782486C300068C0F34000AE
:102380000028F1D014E000207F490860FFF7AEFB81
:10239000054606E0FFF7AAFB401B022801D90320EF
:1023A000F4E677486C300068C0F340000028F1D1B3
:1023B000207800F00400042870D1002770483830DD
:1023C000006800F0805090B900BF002000906C4879
:1023D0003830006840F0805069493831086008465C
:1023E000006800F08050009000BF00BF01276748E0
:1023F000006800F48070B0B96448006840F48070F0
:1024000062490860FFF772FB054606E0FFF76EFBC6
:10241000401B022801D90320B8E65C48006800F49C
:1024200080700028F2D000BFA068012808D154486D
:102430006830006840F001005149683108601DE0D3
:10244000A06805280DD14E486830006840F00400AF
:102450004B49683108600846006840F00100086098
:102460000CE047486830006820F0010044496831BA
:1024700008600846006820F00400086000BFA068FB
:10248000A8B1FFF733FB054609E0FFF72FFB401B20
:1024900041F28831884202D9032077E626E03848A5
:1024A00068300068C0F340000028EED013E0FFF76A
:1024B0001DFB054608E0FFF719FB401B41F2883180
:1024C000884201D9032061E62D4868300068C0F3D6
:1024D00040000028EFD1012F07D12948383000688B
:1024E00020F0805026493831086000BFA0690028DC
:1024F00045D02348006800F00C0008285DD0A06992
:10250000022845D100201F490866FFF7EFFA05466B
:1025100006E0FFF7EBFA401B022801D9032035E65D
:10252000174808380068C0F340600028F1D1D4E9AA
:1025300007010843616A40EA81110122A06AC2EBE7
:10254000500041EA00412C20005D41EA00600C4946
:10255000091F086001200B490866FFF7C7FA054606
:1025600006E0FFF7C3FA401B022801D903200DE65D
:10257000034808380068C0F340600028F1D049E003
:102580000838024000004742800E47420070004079
:10259000002021490866FFF7A9FA054606E0FFF783
:1025A000A5FA401B022801D90320EFE51B4800686B
:1025B000C0F340600028F2D12CE0A069012800D1CE
:1025C000E4E51648001D0668A069012820D006F43D
:1025D0008001E06981421BD106F03F01206A8142FF
:1025E00016D147F6C0703040616AB0EB811F0FD141
:1025F00006F440310122A06AC2EB5000B1EB004F5B
:1026000006D106F070612C20005DB1EB006F01D0A7
:102610000120BBE50020B9E5000047420038024038
:1026200070B5044601250CB9012070BD607F20B94A
:1026300000202077204600F04DF8022060772068C7
:10264000C068C0F3001000283CD100BFCA20216838
:10265000486253202168486200BF204602F01CFDFA
:102660000546EDB9206880681949084021688860EE
:1026700021696068084361690843216889680843E3
:10268000216888602168E068086120680169208904
:1026900041EA004021680861204602F022FD05461B
:1026A0005DB92068006C20F48020216808642068EF
:1026B000006CA16908432168086400BFFF202168FD
:1026C000486200E000250DB9012060772846ACE79C
:1026D000BFFF8FFF1FB504460020009001900290BD
:1026E00003900949206888420CD102200090000222
:1026F00003906846FFF714FB08B1FEF745FE012082
:10270000024908601FBD0000002800403C0E4742FF
:1027100070B5044600250B482168C860FFF7E6F94C
:10272000054607E0FFF7E2F9401BB0F57A7F01D9D3
:10273000032070BD2068C06800F020000028F1D0A0
:102740000020F6E75F7F01007047704710B5034631
:10275000002200BF93F83C00012801D1022010BDE7
:10276000012083F83C0000BF22F0FF00CC6840EA63
:10277000040222F440708C6840EA040222F4806073
:102780004C6840EA040222F400600C6840EA04024B
:1027900022F480500C6940EA040222F400504C6993
:1027A00040EA040222F48040CC6940EA040218683E
:1027B000426400BF002083F83C0000BF00BFCEE7AA
:1027C00030B502460B4600BF92F83C00012801D10B
:1027D000022030BD012082F83C0000BF022082F8B8
:1027E0003D00106844681068816824F0700418681F
:1027F000044310684460184D1068A8421BD010684C
:10280000B0F1804F17D0154D1068A84213D0144D69
:102810001068A8420FD0134D1068A8420BD0124D7B
:102820001068A84207D0114D1068A84203D0104D7F
:102830001068A84205D121F0800158680143106852
:102840008160012082F83D0000BF002082F83C003A
:1028500000BF00BFBDE700000000014000040040D1
:1028600000080040000C004000040140004001400E
:102870000018004010B504460CB9012010BD94F8B2
:102880003D0028B9002084F83C00204600F026F8DE
:10289000022084F83D00211D206803F0E9F80120A2
:1028A00084F8460000BF84F83E0001213F20015516
:1028B000402001554120015500BF00BF012084F890
:1028C000420043200155442001554520015500BFD9
:1028D000012084F83D000020D0E7000010B586B04C
:1028E0000446142101A8FDF717FD664920688842B7
:1028F00030D100BF002000906348006840F0010024
:10290000614908600846006800F00100009000BFBF
:1029100000BF002205211820FFF7B0F91820FFF7AB
:1029200099F9002205211920FFF7A8F91920FFF7CE
:1029300091F9002205211A20FFF7A0F91A20FFF7CC
:1029400089F9002205211B20FFF798F91B20FFF7CA
:1029500081F995E04D492068884211D100BF0020DF
:1029600000904948001F006840F020004649091FB8
:1029700008600846006800F02000009000BF7FE07B
:1029800043492068884220D100BF002000903E4883
:10299000006840F002003C4908600846006800F00A
:1029A0000200009000BF00BF002205212B20FFF78E
:1029B00065F92B20FFF74EF900220F212D20FFF79C
:1029C0005DF92D20FFF746F95AE032492068884228
:1029D00018D100BF002000902B48006840F48030E0
:1029E000294908600846006800F48030009000BF64
:1029F00000BF002205211820FFF740F91820FFF73B
:102A000029F93DE024492068884239D100BF0020DF
:102A100000901D48001F006840F040001A49091F3F
:102A200008600846006800F04000009000BF00BF4A
:102A300000BF0020009014481438006840F00200E5
:102A40001149143908600846006800F0020000903F
:102A500000BF00BF4FF48040019002200290002090
:102A6000039004900920059001A90C48FEF736FF59
:102A7000002205212B20FFF701F92B20FFF7EAF8B0
:102A800006B010BD00000140443802400014004070
:102A900000040140004001400018004000040240D2
:102AA000014691F83D00012801D001207047022025
:102AB00081F83D000868C06840F001000B68D860EC
:102AC0001A4B086898421BD00868B0F1804F17D0A5
:102AD000174B0868984213D0164B086898420FD0DD
:102AE000154B086898420BD0144B0868984207D0E1
:102AF000134B0868984203D0124B086898420CD1D7
:102B00000868806800F00702062A0CD00868006890
:102B100040F001000B68186005E00868006840F0AC
:102B200001000B6818600020C0E7000000000140B1
:102B30000004004000080040000C00400004014078
:102B400000400140001800402DE9F04104460D46C8
:102B5000002700BF94F83C00012802D10220BDE804
:102B6000F081012084F83C0000BF022084F83D0081
:102B70002068866826F0770626F47F4620688660FF
:102B80002868502833D00CDC202850D004DC0028E2
:102B90004BD0102851D149E0302849D040284CD1A1
:102BA00039E060282DD0702807D0B0F5805F03D0C1
:102BB000B0F5005F41D10DE041E0D5E902136A684C
:102BC000206802F0DAFF2068866846F07706206801
:102BD000866034E0D5E902136A68206802F0CDFF10
:102BE0002068806840F480402168886027E0EA68B7
:102BF0006968206803F0B2F85021206802F0C8FF2D
:102C00001DE0EA686968206803F004F96021206823
:102C100002F0BEFF13E0EA686968206803F09EF8DE
:102C20004021206802F0B4FF09E000BF00BF00BFF0
:102C30002968206802F0ACFF01E0012700BF00BF57
:102C4000012084F83D0000BF002084F83C0000BF54
:102C5000384684E770472DE9F04104460D46164694
:102C6000002700BF94F83C00012802D10220BDE8F3
:102C7000F081012084F83C0000BF96B9EB68D5E9EB
:102C80000012206803F07EF82068806920F00C00B4
:102C90002168886120688069A96808432168886183
:102CA00041E0042E13D1EB68D5E90012206803F04F
:102CB000C5F82068806920F4406021688861206838
:102CC0008069A96840EA0120216888612BE0082E0C
:102CD00012D1EB68D5E90012206803F0CCF8206827
:102CE000C06920F00C002168C8612068C069A9682B
:102CF00008432168C86116E00C2E13D1EB68D5E9B2
:102D00000012206803F0D3F82068C06920F4406006
:102D10002168C8612068C069A96840EA012021686B
:102D2000C86100E0012700BF002084F83C0000BF1C
:102D300038469CE710B504460CB9012010BD94F844
:102D40003D0028B9002084F83C00204600F026F819
:102D5000022084F83D00211D206802F089FE012038
:102D600084F8460000BF84F83E0001213F20015551
:102D7000402001554120015500BF00BF012084F8CB
:102D8000420043200155442001554520015500BF14
:102D9000012084F83D000020D0E7000010B586B087
:102DA0000446142101A8FDF7B7FA5A492068884261
:102DB00037D100BF002000905748006840F0020063
:102DC000554908600846006800F00200009000BF06
:102DD00000BF00BF002000904F481038006840F04E
:102DE00001004D49103908600846006800F00100F4
:102DF000009000BF00BF4020019002200290002000
:102E0000039004900220059001A94448FEF766FD56
:102E1000002205211D20FEF731FF1D20FEF71AFFBD
:102E200076E03F492068884237D100BF00200090FB
:102E30003948006840F004003749086008460068D7
:102E400000F00400009000BF00BF00BF0020009011
:102E500031481038006840F008002F4910390860E8
:102E60000846006800F00800009000BF00BF88140A
:102E7000019002200290002003900490022005900F
:102E800001A92848FEF72AFD002205211E20FEF791
:102E9000F5FE1E20FEF7DEFE3AE023492068884258
:102EA00036D100BF002000901B48006840F00800A9
:102EB000194908600846006800F00800009000BF4B
:102EC00000BF00BF0020009013481038006840F099
:102ED00001001149103908600846006800F001003F
:102EE000009000BF00BF042001900220029000204B
:102EF000039004900220059001A90848FEF7EEFC1B
:102F0000002205213220FEF7B9FE3220FEF7A2FE94
:102F100006B010BD000400404038024000000240EE
:102F200000080040000C0240000C00402DE9F04178
:102F300004460D4615B994F83E000BE0042D02D16D
:102F40003F20005D06E0082D02D14020005D01E039
:102F50004120005D074615B994F842000BE0042DAE
:102F600002D14320005D06E0082D02D14420005D1F
:102F700001E04520005D8046012F02D1B8F1010F2C
:102F800002D00120BDE8F0811DB9022084F83E0086
:102F90000EE0042D03D102213F20015508E0082D49
:102FA00003D102214020015502E0022141200155B8
:102FB0001DB9022084F842000EE0042D03D1022145
:102FC0004320015508E0082D03D10221442001557A
:102FD00002E002214520015501222946206802F025
:102FE000BBFD1A49206888421BD02068B0F1804F91
:102FF00017D017492068884213D0164920688842A4
:103000000FD01549206888420BD0144920688842A7
:1030100007D013492068884203D0124920688842AB
:103020000CD12068806800F00706062E0CD02068BE
:10303000006840F001002168086005E02068006831
:1030400040F001002168086000209BE7000001407B
:103050000004004000080040000C00400004014053
:10306000004001400018004030B504460D460022E3
:103070002946206802F070FD00BF2068006A41F216
:103080001111084050B92068006A8910084028B919
:103090002068006820F001002168086000BF1DB9A9
:1030A000012084F83E000EE0042D03D101213F20D1
:1030B000015508E0082D03D101214020015502E00F
:1030C0000121412001551DB9012084F842000EE084
:1030D000042D03D101214320015508E0082D03D11F
:1030E00001214420015502E0012145200155002025
:1030F00030BD70B504462068C5682068066906F0D2
:103100000200022819D105F00200022815D1401F43
:1031100021680861012020772068806900F00300A1
:1031200018B12046FFF796FD05E0204600F05CF957
:10313000204600F0E1FB0020207706F00400042880
:1031400019D105F00400042815D1C0432168086195
:10315000022020772068806900F4407018B1204672
:10316000FFF778FD05E0204600F03EF9204600F02C
:10317000C3FB0020207706F00800082819D105F0CD
:103180000800082815D1C043216808610420207771
:103190002068C06900F0030018B12046FFF75AFD0F
:1031A00005E0204600F020F9204600F0A5FB0020B5
:1031B000207706F01000102819D105F01000102813
:1031C00015D1C04321680861082020772068C069B4
:1031D00000F4407018B12046FFF73CFD05E02046A2
:1031E00000F002F9204600F087FB0020207706F06F
:1031F000010048B105F0010030B16FF00100216815
:103200000861204600F054FC06F08000802809D1B7
:1032100005F08000802805D1C04321680861204660
:10322000FFF792FA06F04000402809D105F040006F
:10323000402805D1C04321680861204600F044FCC5
:1032400006F02000202809D105F02000202805D113
:10325000C043216808612046FFF777FA70BD00007F
:1032600010B586B00446142101A8FDF755F83C4975
:10327000206888422DD100BF0020009039480068A6
:1032800040F01000374908600846006800F0100060
:10329000009000BF00BF4FF4206001900220029018
:1032A00000200390022004900120059001A92E48DF
:1032B000FEF714FB4FF40050019002200290002012
:1032C000039004900120059001A92748FEF706FB12
:1032D00043E02649206888421ED100BF00200090AC
:1032E0002048006840F004001E4908600846006855
:1032F00000F00400009000BF00BF4FF47070019018
:10330000022002900020039004900320059001A960
:103310001748FEF7E3FA20E01649206888421CD1DE
:1033200000BF002000900F48006840F010000D49D9
:1033300008600846006800F01000009000BF00BF61
:10334000602001900220029000200390049003204E
:10335000059001A90448FEF7C1FA06B010BD0000AF
:1033600000000140303802400010024000040140DB
:1033700000080240004001402DE9F04104460E469D
:103380001546002700BF94F83C00012802D1022016
:10339000BDE8F081012084F83C0000BF35B1042D68
:1033A00009D0082D0CD00C2D14D10EE03146206828
:1033B00002F0F8FB10E03146206802F02BFC0BE035
:1033C0003146206802F064FC06E03146206802F0D5
:1033D0009BFC01E0012700BF00BF00BF002084F874
:1033E0003C0000BF3846D3E738B504463149206871
:1033F00088425DD100200090207F012829D12E48ED
:103400000068406B80B2009049152C48FEF760FBC5
:1034100088B92B48408E2A49098E4843642190FB85
:10342000F1F02749098EBDF800201144081A2249FD
:10343000096848630DE02248408E2149098E4843BF
:10344000642190FBF1F0BDF8001008441A490968A6
:103450004863207F02282AD117480068806B80B219
:1034600000904FF400611548FEF732FB88B915480B
:10347000408E1449098E4843642190FBF1F01149B4
:10348000098EBDF800201144081A0B4909688863A9
:103490000DE00C48408E0B49098E4843642190FB97
:1034A000F1F0BDF80010084403490968886300BFC3
:1034B00038BD0000000001408804002000100240D8
:1034C000700B0020A80B002010B504460CB9012099
:1034D00010BD94F83D0028B9002084F83C00204637
:1034E00000F025F8022084F83D00211D206802F03C
:1034F000BFFA012084F8460000BF84F83E00012195
:103500003F200155402001554120015500BF00BF1B
:10351000012084F8420043200155442001554520F4
:10352000015500BF012084F83D000020D0E770471E
:10353000F0B504460D46002615B994F83E000BE0A0
:10354000042D02D13F20005D06E0082D02D140206D
:10355000005D01E04120005D012801D00120F0BDA7
:103560001DB9022084F83E000EE0042D03D1022193
:103570003F20015508E0082D03D1022140200155CC
:1035800002E002214120015535B1042D0BD0082D58
:1035900010D00C2D1CD114E02068C06840F002004F
:1035A0002168C86016E02068C06840F00400216807
:1035B000C8600FE02068C06840F008002168C8605B
:1035C00008E02068C06840F010002168C86001E091
:1035D000012600BF00BFEEBB01222946206802F091
:1035E000BBFA24492068884203D0234920688842D6
:1035F00001D1012000E0002028B12068406C40F497
:103600000040216848641B49206888421BD020681C
:10361000B0F1804F17D019492068884213D018495B
:10362000206888420FD01749206888420BD0124981
:103630002068884207D014492068884203D0134983
:10364000206888420ED12068806800F00707062FA6
:103650000ED000E00CE02068006840F00100216816
:10366000086005E02068006840F0010021680860FB
:10367000304674E7000001400004014000040040AF
:1036800000080040000C00400040014000180040CD
:1036900070B504460D46002635B1042D0BD0082D1B
:1036A00010D00C2D1CD114E02068C06820F002005E
:1036B0002168C86016E02068C06820F00400216816
:1036C000C8600FE02068C06820F008002168C8606A
:1036D00008E02068C06820F010002168C86001E0A0
:1036E000012600BF00BF002E4AD1002229462068D3
:1036F00002F032FA23492068884203D02249206828
:10370000884201D1012000E0002090B100BF206874
:10371000006A41F21111084050B92068006A89100E
:10372000084028B92068406C20F4004021684864B3
:1037300000BF00BF2068006A41F21111084050B973
:103740002068006A8910084028B92068006820F0C5
:1037500001002168086000BF1DB9012084F83E0007
:103760000EE0042D03D101213F20015508E0082D72
:1037700003D101214020015502E0012141200155E2
:10378000304670BD00000140000401402DE9F041C9
:1037900004460D461646002700BF94F83C00012859
:1037A00002D10220BDE8F081012084F83C0000BF76
:1037B00036B1042E1BD0082E31D00C2E5ED145E040
:1037C0002946206802F0EEF92068806940F0080080
:1037D000216888612068806920F004002168886180
:1037E00020688069296908432168886148E0294682
:1037F000206802F00FFA2068806940F400602168B8
:1038000088612068806920F4806021688861206870
:103810008069296940EA01202168886130E02946F1
:10382000206802F035FA2068C06940F0080021687D
:10383000C8612068C06920F004002168C861206860
:10384000C069296908432168C86119E029462068D0
:1038500002F05AFA2068C06940F400602168C8612B
:103860002068C06920F480602168C8612068C06950
:10387000296940EA01202168C86101E0012700BFF1
:1038800000BF00BF002084F83C0000BF384689E735
:1038900010B504460CB9012010BD94F83D0028B9BC
:1038A000002084F83C00204600F025F8022084F82F
:1038B0003D00211D206802F0DBF8012084F846005D
:1038C00000BF84F83E0001213F20015540200155F2
:1038D0004120015500BF00BF012084F84200432071
:1038E0000155442001554520015500BF012084F8B1
:1038F0003D000020D0E770477047000070B50446D7
:103900000D4615B994F83E000BE0042D02D13F207E
:10391000005D06E0082D02D14020005D01E041205D
:10392000005D012801D0012070BD1DB9022084F87E
:103930003E000EE0042D03D102213F20015508E096
:10394000082D03D102214020015502E0022141202F
:10395000015501222946206802F0FEF8234920681B
:10396000884203D022492068884201D1012000E02A
:10397000002028B12068406C40F400402168486471
:103980001A49206888421BD02068B0F1804F17D0B8
:1039900018492068884213D01749206888420FD000
:1039A0001649206888420BD011492068884207D008
:1039B00013492068884203D01249206888420CD1FC
:1039C0002068806800F00706062E0CD0206800688A
:1039D00040F001002168086005E02068006840F0C0
:1039E00001002168086000209EE7000000000140FF
:1039F000000401400004004000080040000C0040AA
:103A0000004001400018004030B504460D46002239
:103A10002946206802F0A0F823492068884203D094
:103A200022492068884201D1012000E0002090B1A5
:103A300000BF2068006A41F21111084050B92068A7
:103A4000006A8910084028B92068406C20F40040C2
:103A50002168486400BF00BF2068006A41F211116C
:103A6000084050B92068006A8910084028B92068C9
:103A7000006820F001002168086000BF1DB9012026
:103A800084F83E000EE0042D03D101213F200155B2
:103A900008E0082D03D101214020015502E0012159
:103AA00041200155002030BD0000014000040140CC
:103AB00010B5044603492068884201D1FEF71CF87E
:103AC00010BD0000002000407047704770B50446EC
:103AD000002520684069C0F3C01594F841002128F2
:103AE00017D1B5B100BF00BF2168143151E8001FE4
:103AF00021F080002168143141E80002002AF3D14E
:103B000000BFA06B10B1A06BFDF741FC204602F096
:103B10000CFB20684069C0F3801594F8420022280D
:103B200017D1B5B100BF00BF2168143151E8001FA3
:103B300021F040002168143141E80002002AF3D14D
:103B400000BFE06B10B1E06BFDF721FC204602F0F6
:103B5000A6FA002070BD70472DE9F84F0446206892
:103B600005682068C668206847694FF00009CA46A2
:103B700005F00F09B9F1000F0AD105F0200038B1A6
:103B800006F0200020B1204602F0E2FABDE8F88FEE
:103B9000B9F1000F7CD007F0010018B906F490705D
:103BA000002875D005F0010030B106F4807018B11E
:103BB000606C40F00100606405F0040030B107F073
:103BC000010018B1606C40F00200606405F0020072
:103BD00030B107F0010018B1606C40F0040060647F
:103BE00005F0080048B106F0200010B907F0010008
:103BF00018B1606C40F008006064606C002846D02A
:103C000005F0200028B106F0200010B1204602F097
:103C10009FFA20684069C0F3801A606C00F00800C9
:103C200010B9BAF1000F2DD0204602F038FA206802
:103C3000406900F04000402820D100BF00BF21684B
:103C4000143151E8001F21F040002168143141E88F
:103C50000002002AF3D100BFE06B50B17748E16B5E
:103C60000865E06BFDF7E9FB88B1E06B016D884703
:103C70000DE02046FFF76FFF09E009E02046FFF75F
:103C80006AFF04E02046FFF766FF002060647DE7DE
:103C9000206B012878D105F01000002874D006F0C0
:103CA00010000028FAD000BF0020009020680068B3
:103CB000009020684068009000BF00BF2068406905
:103CC00000F04000402860D1E06B006840681FFAB7
:103CD00080F8B8F1000F56D0A08D404553DDA4F810
:103CE0002E80E06BC069B0F5807F43D000BF00BF7D
:103CF00021680C3151E8001F21F4807021680C31DB
:103D000041E80002002AF3D100BF00BF00BF2168D4
:103D1000143151E8001F21F001002168143141E8FD
:103D20000002002AF3D100BF00BF00BF2168143198
:103D300051E8001F21F040002168143141E80002E1
:103D4000002AF3D100BF202084F842000020206325
:103D500000BF00BF21680C3151E8001F21F01000A6
:103D600021680C3141E80002002AF3D100BFE06B6A
:103D7000FDF70DFB02206063A08DE28D801A81B2F9
:103D80002046FFF7A2FE01E742E0A08DE18D401A38
:103D90001FFA80F8E08DD0B3B8F1000F37D000BF24
:103DA00000BF21680C3151E8001F21F49070216898
:103DB0000C3141E80002002AF3D100BF00BF00BF70
:103DC0002168143151E8001F21F0010021681431ED
:103DD00041E80002002AF3D100BF202084F842000D
:103DE0000020206300BF00BF21680C3151E8001F94
:103DF00021F0100021680C3141E80002002AF3D1C3
:103E000000BF0220606341462046FFF75EFEBDE62C
:103E100005F0800030B106F0800018B1204602F0B5
:103E20008FFBB3E605F0400030B106F0400018B15A
:103E3000204602F06AF9A9E600BFA7E6FD5E000889
:103E400038B5044600BF002000902068006800904C
:103E500020684068009000BF00BF2046FFF736FE94
:103E6000204601F00BF9204601F0CCFC38BD10B51E
:103E700004460CB9012010BDA06900B100E000BFEC
:103E800094F8410028B9002084F84000204600F052
:103E900029F8242084F841002068C06820F40050EC
:103EA0002168C860204602F0D1F92068006920F43A
:103EB0009040216808612068406920F02A0021684C
:103EC00048612068C06840F400502168C860002044
:103ED0006064202084F8410084F842000020606380
:103EE00000BFC8E710B586B00446142101A8FCF74E
:103EF00013FAFE49206888427ED100BF002000905E
:103F0000FB48006840F48010F949086008460068E2
:103F100000F48010009000BF00BF00BF00200090A0
:103F2000F3481038006840F00400F1491039086087
:103F30000846006800F00400009000BF00BF00BF0A
:103F4000002000900846006840F00800086008461D
:103F5000006800F00800009000BF00BF88140190C6
:103F60000220029000200390032004900820059076
:103F700001A9E048FDF7B2FC042001900220029064
:103F800000200390032004900820059001A9DA483E
:103F9000FDF7A4FCD948DA490860C0054860002153
:103FA000D7488160C1604FF48061016100214161A7
:103FB00081614FF48071C161002101624162FDF7AE
:103FC00071FB08B1FDF7E0F900BFCD48E063846301
:103FD00000BFCA48A830CB4908604FF00060486075
:103FE0004021C84881600021C1604FF480610161B7
:103FF00000214161816100E015E0C161016241621F
:10400000FDF750FB08B1FDF7BFF900BFBD48A06345
:10401000846300BF002205213520FDF72FFE3520E7
:10402000FDF718FEBDE1B849206888427BD100BF8A
:1040300000200090AE48001D006840F01000AC4920
:10404000091D08600846006800F01000009000BFDD
:1040500000BF00BF00200090A5481038006840F065
:104060000100A349103908600846006800F001000B
:10407000009000BF00BF4FF4C0600190022002908A
:1040800000200390032004900720059001A99F4879
:10409000FDF724FC9E489F4908604FF0006048608F
:1040A00000219C488160C1604FF480610161002162
:1040B000416181614FF48071C161002101624162FF
:1040C000FDF7F0FA08B1FDF75FF900BF9148E06332
:1040D000846300BF8E4878308F4908604FF00060DD
:1040E000486040218C4881600021C1604FF48061AC
:1040F0000161002141618161C16101624162FDF79D
:10410000D1FA08B1FDF740F900BF8348A06384638A
:1041100000BF002205212520FDF7B0FD2520FDF779
:1041200099FD3EE1FFE77D49206888427ED100BFCE
:10413000002000906E48006840F400306C49086030
:104140000846006800F40030009000BF00BF00BFC8
:104150000020009066481038006840F00100644973
:10416000103908600846006800F00100009000BFA8
:1041700000BF00BF002000900846006840F0080023
:1041800008600846006800F00800009000BF00BF0B
:104190000820019002200290002003900320049048
:1041A0000720059001A95948FDF798FB20200190B0
:1041B0000220029000200390032004900720059025
:1041C00001A94D48FDF78AFB4C48783054490860F6
:1041D0004FF000604860002151488160C1604FF499
:1041E000806101610021416181614FF48071C16191
:1041F000002101624162FDF755FA08B1FDF7C4F8EC
:1042000000BF4748E063846300BF3C4890304549A5
:1042100008604FF000604860402142488160002102
:10422000C1604FF480610161002100E017E041614D
:104230008161C16101624162FDF734FA08B1FDF7A5
:10424000A3F800BF3748A063846300BF00220521A4
:104250002620FDF713FD2620FDF7FCFCA1E03249E6
:1042600020688842FAD100BF002000902048001D3D
:10427000006840F020001E49091D086008460068DB
:1042800000F02000009000BF00BF00BF00200090A1
:1042900017481038006840F0400015491039086090
:1042A0000846006800F04000009000BF00BF4FF4D7
:1042B000844001900220029000200390032004908B
:1042C0000820059001A91948FDF708FB1048183887
:1042D0001749086080054860002115488160C16069
:1042E0004FF4806101610021416123E000500040F2
:1042F0004038024000080240000C024010600240BA
:10430000E80700204808002000100140000002409B
:1043100040640240A8080020080900200044004032
:1043200068090020C809002000140140001802405C
:10433000280A002081614FF48071C161002101626F
:104340004162FDF7AFF908B1FDF71EF800BF16484E
:10435000E063846300BF1548154908604FF0206092
:1043600048604021124881600021C1604FF48061A3
:104370000161002141618161C16101624162FDF71A
:1043800091F908B1FDF700F800BF0948A063846304
:1043900000BF002205214720FDF770FC4720FDF7F4
:1043A00059FC06B010BD0000280A0020A06402409D
:1043B000880A002070B504460D46164694F842005F
:1043C00020280BD105B10EB9012070BD002020635B
:1043D00032462946204602F04FF8F6E70220F4E77D
:1043E00010B50446204600F049FE204601F00AFAC6
:1043F00010BD70472DE9F84F04460E461746994602
:104400004FF0000A94F84100202850D106B117B9A6
:104410000120BDE8F88F00206064212084F841006D
:10442000FDF764FB8246A784E784A068B0F5805F4F
:1044300004D1206910B90025B04602E035464FF09E
:1044400000081EE05346002280212046CDF800904F
:1044500002F0A6F820B1202084F841000320D8E71C
:1044600045B9B8F80000C0F308002168486008F1B9
:10447000020803E02878216848606D1CE08C401E2B
:10448000E084E08C0028DDD1534600224021204604
:10449000CDF8009002F084F820B1202084F841008B
:1044A0000320B6E7202084F841000020B1E7022075
:1044B000AFE70000F7B50446154694F84100202800
:1044C00036D1019800B10DB90120FEBD01982062DE
:1044D000A584E58400206064212084F8410015480B
:1044E000A16BC8631448A16B08641448A16BC8642D
:1044F0000020A16B086501AE23681A1D31682B46A8
:10450000A06BFDF745F96FF040002168086000BF1F
:1045100000BF2168143151E8001F41F0800021687C
:10452000143141E80002002AF3D100BF0020CCE79B
:104530000220CAE73960000891600008115F000896
:104540000121014A11707047A4010020704700BF8B
:10455000FEE7000008B500BF002000902E4800686C
:1045600040F480002C4908600846006800F4800090
:10457000009000BF00BF00BF002000900846006808
:1045800040F4001008600846006800F40010009035
:1045900000BF00BF002205210B20FDF76FFB0B20A1
:1045A000FDF758FB002205211020FDF767FB1020C6
:1045B000FDF750FB002205211120FDF75FFB1120C4
:1045C000FDF748FB002205212F20FDF757FB2F2088
:1045D000FDF740FB002205213920FDF74FFB392074
:1045E000FDF738FB002205213A20FDF747FB3A2072
:1045F000FDF730FB002205214520FDF73FFB45205C
:10460000FDF728FB002205214620FDF737FB462059
:10461000FDF720FB08BD00003038024000B587B030
:104620001C2206496846FBF75EFE0021684602F040
:104630008EFE0349086007B000BD0000BC8700087B
:104640001400002000B587B0142102A8FBF764FE17
:1046500000BF00200190B448006840F01000B2494B
:1046600008600846006800F01000019000BF00BF1D
:1046700000BF002001900846006840F00400086078
:104680000846006800F00400019000BF00BF00BFB2
:10469000002001900846006840F0200008600846AD
:1046A000006800F02000019000BF00BF00BF0020A4
:1046B00001900846006840F08000086008460068E5
:1046C00000F08000019000BF00BF00BF00200190FB
:1046D0000846006840F0010008600846006800F0E5
:1046E0000100019000BF00BF00BF002001900846FC
:1046F000006840F0020008600846006800F0020010
:10470000019000BF00BF00BF002001900846006874
:1047100040F0400008600846006800F0400001904A
:1047200000BF00BF00BF002001900846006840F0B5
:10473000080008600846006800F00800019000BF0B
:1047400000BF002290217948FDF7CAF9002242F209
:104750007C417748FDF7C4F901224FF414417548B4
:10476000FDF7BEF900224FF480417248FDF7B8F919
:1047700000224FF408417048FDF7B2F940F29F1053
:104780000290032003900020049002A96948FDF7DD
:10479000A5F84EF63F4002900320039000200490BD
:1047A00002A96648FDF79AF81F2002904FF44410C2
:1047B00003900020049002A96148FDF78FF84FF69E
:1047C000E0700290032003900020049002A95C484E
:1047D000FDF784F849F6231002900320039000208F
:1047E000049002A95148FDF779F890200290012029
:1047F000039000200490059002A94C48FDF76EF844
:1048000049F683300290032003900020049002A90F
:104810004748FDF763F842F27C00029001200390C4
:1048200000200490059002A94148FDF757F84BF687
:10483000DF500290032003900020049002A9414819
:10484000FDF74CF84FF41440029001200390002033
:104850000490059002A93748FDF740F84FF48040D6
:10486000029001200390002004900220059002A9EC
:104870003048FDF733F84FF4806002900120039038
:10488000002004900220059002A92948FDF726F88F
:1048900046F2DB700290032003900020049002A9EE
:1048A0002548FDF71BF84FF40840029001200390C3
:1048B00000200490059002A91F48FDF70FF8202062
:1048C00002904FF4881003900020049002A91D4824
:1048D000FDF704F8002205210620FDF7CFF9062098
:1048E000FDF7B8F9002205210720FDF7C7F90720D9
:1048F000FDF7B0F9002205210820FDF7BFF90820D7
:10490000FDF7A8F9002205210920FDF7B7F90920D4
:10491000FDF7A0F9002205210A20FDF7AFF90A20D2
:10492000FDF798F907B000BD3038024000000240A2
:104930000004024000100240000C02400008024047
:10494000001402400018024010B50A480A490860E5
:10495000002048607F2108488160FF21C16000215C
:10496000016141618161FDF75BFE08B1FCF70CFD5F
:1049700010BD0000002800406804002000B589B088
:1049800000200590069007900890019002900390F7
:1049900004902048204908602920486000211E48D2
:1049A00081604FF6FF71C16000210161802181614A
:1049B000FDF760FF08B1FCF7E7FC4FF4805005906D
:1049C00005A91548FEF7C0F808B1FCF7DDFC124850
:1049D000FEF7B0F908B1FCF7D7FC002001900120E8
:1049E0000290002003900490002201A90A48FEF7DB
:1049F00032F908B1FCF7C8FC0220019002900422B1
:104A000001A90548FEF727F908B1FCF7BDFC09B07C
:104A100000BD0000001800408006002000B595B0E1
:104A2000002011901290139014900F9010901C2160
:104A300008A8FBF771FC20216846FBF76DFC56487F
:104A400056490860052048600021544881604FF6AF
:104A5000FF71C16000210161416180218161FDF729
:104A600009FF08B1FCF790FC4FF48050119011A998
:104A70004A48FEF769F808B1FCF786FC4748FEF79C
:104A800023FD08B1FCF780FC4448FEF701FF08B1A4
:104A9000FCF77AFC00200F9010900FA93F48FDF71B
:104AA0008FFE08B1FCF770FC302008904FF4FA70CC
:104AB000099000200A900B900C900D900E9000220F
:104AC00008A93648FEF758FC08B1FCF75DFC3348EE
:104AD0000068806940F008003049096888616020FA
:104AE000089040F6C4100990042208A92B48FEF74C
:104AF0004DFE08B1FCF748FC302008904FF4FA70E6
:104B00000990082208A92548FEF736FC08B1FCF7F1
:104B10003BFC22480068C06940F008001F49096852
:104B2000C8610020009001900290039004904FF41F
:104B3000005005900020079069461848FDF706FED2
:104B400008B1FCF721FC00211448FEF7F1FC01221A
:104B50000021114801F000F804211048FEF7E8FC9C
:104B6000012204210C4800F0F7FF08210B48FEF752
:104B7000DFFC01220821084800F0EEFF0821074869
:104B8000FEF7D6FC01220821034800F0E5FF0348A8
:104B9000FEF766FB15B000BD000001408804002050
:104BA00000B587B000200590069001900290039018
:104BB00004901D481D4908602920486000211B48B9
:104BC00081604FF6FF71C160002101618021816128
:104BD000FEF7B0F808B1FCF7D7FB0020059006906F
:104BE00005A91248FDF7ECFD08B1FCF7CDFB00204C
:104BF000019001200290002003900490002201A95E
:104C00000A48FEF728F808B1FCF7BEFB0220019025
:104C10000290042201A90548FEF71DF808B1FCF72F
:104C2000B3FB07B000BD000000040040D00400202A
:104C300000B587B000200590069001900290039087
:104C400004901D481D4908602920486000211B4828
:104C500081604FF6FF71C160002101618021816197
:104C6000FEF768F808B1FCF78FFB0020059006906E
:104C700005A91248FDF7A4FD08B1FCF785FB00204B
:104C8000019001200290002003900490002201A9CD
:104C90000A48FDF7E0FF08B1FCF776FB022001901F
:104CA0000290042201A90548FDF7D5FF08B1FCF7E1
:104CB0006BFB07B000BD0000000800401805002095
:104CC00000B587B0002005900690019002900390F7
:104CD00004901C481C4908602920486000211A489B
:104CE0008160491EC1600021016180218161FEF760
:104CF00021F808B1FCF748FB00200590069005A9B3
:104D00001148FDF75DFD08B1FCF73EFB0020019066
:104D100001200290002003900490082201A90A4873
:104D2000FDF799FF08B1FCF72FFB022001900290DC
:104D30000C2201A90448FDF78EFF08B1FCF724FB03
:104D400007B000BD000C0040600500201CB500202D
:104D5000009001900E480F49086000204860002133
:104D60000C4881604FF6FF71C16000218161FDF741
:104D700081FD08B1FCF708FB002000900190694616
:104D80000448FDF71DFD08B1FCF7FEFA1CBD00004C
:104D900000140040A805002000B595B00020119037
:104DA0001290139014900F9010901C2108A8FBF7FC
:104DB000B3FA20216846FBF7AFFA37483749086055
:104DC0005320486000213548816044F61F61C1606E
:104DD00000210161416180218161FDF74BFD08B136
:104DE000FCF7D2FA4FF48050119011A92B48FDF72F
:104DF000ABFE08B1FCF7C8FA2848FEF749FD08B138
:104E0000FCF7C2FA00200F9010900FA92348FDF77D
:104E1000D7FC08B1FCF7B8FA602008900020099090
:104E20000A900B900C900D900E90002208A91B4840
:104E3000FEF7ACFC08B1FCF7A7FA042208A9174852
:104E4000FEF7A4FC08B1FCF79FFA082208A9134852
:104E5000FEF79CFC08B1FCF797FA0C2208A90F4852
:104E6000FEF794FC08B1FCF78FFA00200090019047
:104E70000290039004904FF400500590002007909A
:104E800069460648FDF762FC08B1FCF77DFA034865
:104E9000FEF7E6F915B000BD00040140F005002062
:104EA00000B58BB000200790089009900A901C2153
:104EB0006846FBF731FA1F481F49086053204860D5
:104EC00000211D48816044F61F61C160002101611D
:104ED0008161FDF7CFFC08B1FCF756FA4FF4805022
:104EE000079007A91448FDF72FFE08B1FCF74CFA0C
:104EF0001148FEF7CDFC08B1FCF746FA602000909F
:104F00000020019002900490002269460A48FEF7B2
:104F10003DFC08B1FCF738FA042269460648FEF762
:104F200035FC08B1FCF730FA0348FEF799F90BB0ED
:104F300000BD0000004001403806002010B50B48BD
:104F40000B4908604FF4E130486000210848816057
:104F5000C16001610C21416100218161C161FEF7E5
:104F600086FF08B1FCF710FA10BD000000500040A9
:104F7000C806002010B50B480B4908604FF4E1301B
:104F80004860002108488160C16001610C214161D5
:104F900000218161C161FEF76AFF08B1FCF7F4F9F5
:104FA00010BD0000001001401007002010B50B4894
:104FB0000B4908604FF4E1304860002108488160E7
:104FC000C16001610C21416100218161C161FEF775
:104FD0004EFF08B1FCF7D8F910BD000000440040B6
:104FE0005807002010B50B480B4908604FF4E1301A
:104FF0004860002108488160C16001610C21416165
:1050000000218161C161FEF732FF08B1FCF7BCF9F4
:1050100010BD000000140140A007002000BFFEE703
:1050200000BFFEE700BF00F001F8FCE710B50F4835
:105030000068012803D00E480068012810D10C48F0
:105040000068012802D00120094908600948006869
:1050500030B90023022219460748006803F0F4F92A
:10506000034800680349086010BD0000BC00002030
:10507000940100209C0100200C00002070B5054622
:105080000024E86B00684068C0F180041CB1214630
:105090002846FCF705F970BD70B5044600260025CA
:1050A0002068C06800F04000C8B92068C06840F0BF
:1050B00080002168C860FCF719FD064608E0FCF78F
:1050C00015FD801BB0F57A7F02D904206077012599
:1050D0002068C06800F0400008B9012DEFD12846D3
:1050E00070BD70B5044600252068C06820F08000BF
:1050F0002168C8602068806800F0200030B9204630
:10510000FDF706FB10B1042060770125284670BD2D
:1051100010B50446012C1ED0022C0CD0032C02D05A
:10512000042C20D10FE04FF47A7305220F49104868
:10513000FFF760F918E04FF47A7305220D490C4827
:10514000FFF758F910E04FF47A7305220A4908482E
:10515000FFF750F908E04FF47A7305220749044835
:10516000FFF748F900E000BF00BF10BD820100203A
:10517000580700207D0100208701002078010020D1
:1051800010B50446012C1ED0022C0CD0032C02D0EA
:10519000042C20D10FE04FF47A7305220F491048F8
:1051A000FFF728F918E04FF47A7305220D490C48EF
:1051B000FFF720F910E04FF47A7305220A490848F6
:1051C000FFF718F908E04FF47A73052207490448FD
:1051D000FFF710F900E000BF00BF10BD3A0100204A
:1051E00058070020350100203F0100203001002039
:1051F000FBF7F4FB00BF4FF0FF31012002F0E0FBB2
:10520000FBF7A4FBF7E72DE9F04704460D461646E9
:105210001F46DDE90889256066602781A4F80A80B9
:10522000A4F80C9031462846FEF768FBBDE8F087ED
:10523000F0B50C46944201DA144602E09C4200DDCF
:105240001C469D1A4789B0F808C0A7EB0C06A71AA0
:105250007743B7FBF5F7B0F808C0674479004768B3
:105260001FB907683F68796310E04768042F03D1CE
:1052700007683F68B96309E04768082F03D10768EA
:105280003F68F96302E007683F683964F0BD42F2A5
:10529000107002F0CFFD00BFFBF7BEFBC82002F08C
:1052A000C9FDF9E72DE9F0412DED028B04462046BA
:1052B00000F09EF8D4E90001FDF738FEA1682068EF
:1052C000FDF734FE218A0122E068FCF709FC142076
:1052D00001F05AFF218A0022E068FCF701FCFCF78C
:1052E00005FC00F1320522E0606870B920680068B2
:1052F000006900F00200022819D1206800680069E6
:1053000000F00400042812D115E0606808280ED1CE
:1053100020680068006900F00800082807D12068AC
:105320000068006900F01000102800D103E0FCF7CD
:10533000DDFBA842D8D300BFD4E90001FDF794FEFD
:10534000A1682068FDF790FE606818B920680068C1
:10535000406B10E06068042803D120680068806B0F
:1053600009E06068082803D120680068C06B02E08B
:1053700020680068006C0646A06818B920680068BC
:10538000406B10E0A068042803D120680068806B9F
:1053900009E0A068082803D120680068C06B02E01B
:1053A00020680068006C0746B81B00EE100AB8EED3
:1053B000400ADFED0C0A20EE208A9FED0B0A28EE52
:1053C000000ADFED0A0A20EE200AF1EE000A80EE64
:1053D000201A84ED071A94ED070ABDEC028BBDE894
:1053E000F0810000BD3786350000AA430000C842A6
:1053F0000021026812685162416851B96FF00201E0
:105400000268126811616FF004010268126811618C
:105410000BE04168082908D1C9430268126811618C
:105420006FF0100102681268116170477CB5054683
:1054300001241EA001F0E2F902F012FC204807212D
:1054400000232202CDE900101EA1234802F06CFFC8
:105450000446012C02D121A001F0D0F929480621EF
:1054600000234FF48072CDE9001027A12C4802F0F0
:105470005BFF0446012C02D12AA001F0BFF9344899
:10548000062100234FF48072CDE9001031A1374886
:1054900002F04AFF0446012C02D135A001F0AEF91A
:1054A000002002F0F5FC02F005FC7CBD436F6E7439
:1054B000726F6C5461736B2053746172740D0A00C7
:1054C00008000020536572766F5F436F6E74726FD1
:1054D0006C5F5461736B0000F15100085365727684
:1054E0006F5F436F6E74726F6C5F5461736BE4BB7C
:1054F000BBE58AA1E5889BE5BBBAE68890E58A9F73
:105500000D0A00000C000020537465704D6F746F1D
:10551000725F436F6E74726F6C5F5461736B0000E7
:1055200025580008537465704D6F746F725F436F38
:105530006E74726F6C5F5461736BE4BBBBE58AA1E0
:10554000E5889BE5BBBAE68890E58A9F0D0A0000D6
:105550001000002044434D6F746F725F436F6E7490
:10556000726F6C5F5461736B00000000F5100008EF
:1055700044434D6F746F725F436F6E74726F6C5FF4
:105580005461736BE4BBBBE58AA1E5889BE5BBBABC
:10559000E68890E58A9F0D0A000000001CB50124F2
:1055A00017A001F02BF902F05BFB1A480A21002337
:1055B0008022CDE9001018A11C4802F0B5FE044677
:1055C000012C02D11AA001F019F923480A21002365
:1055D0008022CDE9001021A1254802F0A5FE044655
:1055E000012C02D123A001F009F92C48006802F037
:1055F0004FFC02F05FFB00BF012001F097FEFBE7CC
:1056000044656661756C745461736B205374617288
:10561000740D0A000000002053746172745F5365BA
:105620006E736F725F5461736B000000A1560008C7
:1056300053746172745F53656E736F725F546173FC
:105640006BE4BBBBE58AA1E5889BE5BBBAE6889025
:10565000E58A9F0D0A000000040000205374617267
:10566000745F436F6E74726F6C5F5461736B000094
:105670002D54000853746172745F436F6E74726FBF
:105680006C5F5461736BE4BBBBE58AA1E5889BE565
:10569000BBBAE68890E58A9F0D0A0000140000203E
:1056A0007CB5054601241EA001F0A8F802F0D8FA46
:1056B0000020052103462202CDE900101DA121484A
:1056C00002F032FE0446012C02D11FA001F096F830
:1056D0000020052103464FF48072CDE9001023A17C
:1056E000284802F021FE0446012C02D126A001F038
:1056F00085F80020052103464FF48072CDE90010A3
:105700002CA1334802F010FE0446012C02D131A036
:1057100001F074F8002002F0BBFB02F0CBFA7CBD74
:1057200053656E736F725461736B2053746172743E
:105730000D0A0000536F6E61725F526561645F54C1
:1057400061736B008F520008536F6E61725F526518
:1057500061645F5461736BE4BBBBE58AA1E5889B20
:10576000E5BBBAE68890E58A9F0D0A004F50544F7A
:105770007377697463685F526561645F5461736BCA
:1057800000000000255000084F50544F7377697493
:1057900063685F526561645F5461736BE4BBBBE532
:1057A0008AA1E5889BE5BBBAE68890E58A9F0D0A49
:1057B0000000000056697375616C4964656E746918
:1057C00074795F526561645F5461736B000000001F
:1057D0000167000856697375616C4964656E746988
:1057E00074795F526561645F5461736BE4BBBBE5C0
:1057F0008AA1E5889BE5BBBAE68890E58A9F0D0AF9
:105800000000000010B50446012004490870802201
:105810000349204600F058FF10BD0000A6010020FB
:10582000E80C0020054800F041F800BF4FF0FF31C0
:10583000012002F0C5F8FBF715FBF7E7700B00201D
:105840002DE9F04704460D4616461F46DDE9099A44
:10585000DDF820802762A4F82480A18C0122206A30
:10586000FCF73EF9A562E662A4F83090A4F832A0F5
:10587000C820606331462846FDF75AFE01223146B2
:10588000286800F069F931462846FEF737F8BDE888
:10589000F08770B504460D46A18C2A46206AFCF7B5
:1058A0001FF9D4E90A01FDF743FE70BD10B50446A7
:1058B000D4E90A01FEF7A8F8D4E90A01FDF7E8FEE9
:1058C00010BD000010B500BF502080F31188BFF359
:1058D0004F8FBFF36F8F00BF02F04AFE18B14FF039
:1058E00080500449086000BF002080F3118800BF89
:1058F00010BD000004ED00E000B593B0302107A812
:10590000FAF70AFD142102A8FAF706FD00BF0020ED
:1059100001902648006840F08050244908600846FD
:10592000006800F08050019000BF00BF00BF002061
:1059300001901F48006840F480401D4908600846F7
:10594000006800F48040019000BF00BF0A2007906B
:1059500001200A9010200B9001200C9002200D9045
:1059600000210E9108210F91A8211091022111917F
:105970000421129107A8FCF705FC08B1FBF704FD10
:105980000F20029002200390002004904FF4A050BA
:1059900005904FF480500690052102A8FCF790FA7C
:1059A00008B1FBF7F1FC13B000BD00004038024025
:1059B000007000400348006840F47000014908602E
:1059C0007047000088ED00E010B50348FDF791FB3B
:1059D0000248FDF78EFB10BD880400203806002029
:1059E00010B50248FDF785FB10BD000088040020BB
:1059F00010B50248FDF77DFB10BD000088040020B3
:105A000010B50248FDF775FB10BD000088040020AA
:105A100010B50248FDF76DFB10BD0000D00400205A
:105A200010B50248FDF765FB10BD00001805002009
:105A300010B50248FDF75DFB10BD000060050020B9
:105A400010B50348FDF755FB0248FDF752FB10BDAA
:105A5000F00500208006002010B50348FDF749FB43
:105A60000248FDF746FB10BDF0050020E80A0020C3
:105A700010B502682D4B98420ED0B0F1804F0BD07C
:105A80002B4B984208D02B4B984205D02A4B98427A
:105A900002D02A4B984203D122F070024B681A437D
:105AA000224B984220D0B0F1804F1DD0204B98421D
:105AB0001AD0204B984217D01F4B984214D01F4B3E
:105AC000984211D01E4B98420ED01E4B98420BD0DC
:105AD0001D4B984208D01D4B984205D01C4B984254
